{
  "contractName": "TourNFT",
  "abi": [
    {
      "inputs": [],
      "payable": false,
      "stateMutability": "nonpayable",
      "type": "constructor"
    },
    {
      "anonymous": false,
      "inputs": [
        {
          "indexed": true,
          "internalType": "address",
          "name": "owner",
          "type": "address"
        },
        {
          "indexed": true,
          "internalType": "address",
          "name": "approved",
          "type": "address"
        },
        {
          "indexed": true,
          "internalType": "uint256",
          "name": "tokenId",
          "type": "uint256"
        }
      ],
      "name": "Approval",
      "type": "event"
    },
    {
      "anonymous": false,
      "inputs": [
        {
          "indexed": true,
          "internalType": "address",
          "name": "owner",
          "type": "address"
        },
        {
          "indexed": true,
          "internalType": "address",
          "name": "operator",
          "type": "address"
        },
        {
          "indexed": false,
          "internalType": "bool",
          "name": "approved",
          "type": "bool"
        }
      ],
      "name": "ApprovalForAll",
      "type": "event"
    },
    {
      "anonymous": false,
      "inputs": [
        {
          "indexed": true,
          "internalType": "address",
          "name": "from",
          "type": "address"
        },
        {
          "indexed": true,
          "internalType": "address",
          "name": "to",
          "type": "address"
        },
        {
          "indexed": true,
          "internalType": "uint256",
          "name": "tokenId",
          "type": "uint256"
        }
      ],
      "name": "Transfer",
      "type": "event"
    },
    {
      "constant": false,
      "inputs": [
        {
          "internalType": "address",
          "name": "to",
          "type": "address"
        },
        {
          "internalType": "uint256",
          "name": "tokenId",
          "type": "uint256"
        }
      ],
      "name": "approve",
      "outputs": [],
      "payable": false,
      "stateMutability": "nonpayable",
      "type": "function"
    },
    {
      "constant": true,
      "inputs": [
        {
          "internalType": "address",
          "name": "owner",
          "type": "address"
        }
      ],
      "name": "balanceOf",
      "outputs": [
        {
          "internalType": "uint256",
          "name": "",
          "type": "uint256"
        }
      ],
      "payable": false,
      "stateMutability": "view",
      "type": "function"
    },
    {
      "constant": true,
      "inputs": [
        {
          "internalType": "address",
          "name": "",
          "type": "address"
        }
      ],
      "name": "balances",
      "outputs": [
        {
          "internalType": "uint256",
          "name": "",
          "type": "uint256"
        }
      ],
      "payable": false,
      "stateMutability": "view",
      "type": "function"
    },
    {
      "constant": true,
      "inputs": [
        {
          "internalType": "uint256",
          "name": "tokenId",
          "type": "uint256"
        }
      ],
      "name": "getApproved",
      "outputs": [
        {
          "internalType": "address",
          "name": "",
          "type": "address"
        }
      ],
      "payable": false,
      "stateMutability": "view",
      "type": "function"
    },
    {
      "constant": true,
      "inputs": [
        {
          "internalType": "address",
          "name": "owner",
          "type": "address"
        },
        {
          "internalType": "address",
          "name": "operator",
          "type": "address"
        }
      ],
      "name": "isApprovedForAll",
      "outputs": [
        {
          "internalType": "bool",
          "name": "",
          "type": "bool"
        }
      ],
      "payable": false,
      "stateMutability": "view",
      "type": "function"
    },
    {
      "constant": true,
      "inputs": [],
      "name": "name",
      "outputs": [
        {
          "internalType": "string",
          "name": "",
          "type": "string"
        }
      ],
      "payable": false,
      "stateMutability": "view",
      "type": "function"
    },
    {
      "constant": true,
      "inputs": [],
      "name": "nextTokenId",
      "outputs": [
        {
          "internalType": "uint256",
          "name": "",
          "type": "uint256"
        }
      ],
      "payable": false,
      "stateMutability": "view",
      "type": "function"
    },
    {
      "constant": true,
      "inputs": [
        {
          "internalType": "uint256",
          "name": "tokenId",
          "type": "uint256"
        }
      ],
      "name": "ownerOf",
      "outputs": [
        {
          "internalType": "address",
          "name": "",
          "type": "address"
        }
      ],
      "payable": false,
      "stateMutability": "view",
      "type": "function"
    },
    {
      "constant": false,
      "inputs": [
        {
          "internalType": "address",
          "name": "from",
          "type": "address"
        },
        {
          "internalType": "address",
          "name": "to",
          "type": "address"
        },
        {
          "internalType": "uint256",
          "name": "tokenId",
          "type": "uint256"
        }
      ],
      "name": "safeTransferFrom",
      "outputs": [],
      "payable": false,
      "stateMutability": "nonpayable",
      "type": "function"
    },
    {
      "constant": false,
      "inputs": [
        {
          "internalType": "address",
          "name": "from",
          "type": "address"
        },
        {
          "internalType": "address",
          "name": "to",
          "type": "address"
        },
        {
          "internalType": "uint256",
          "name": "tokenId",
          "type": "uint256"
        },
        {
          "internalType": "bytes",
          "name": "_data",
          "type": "bytes"
        }
      ],
      "name": "safeTransferFrom",
      "outputs": [],
      "payable": false,
      "stateMutability": "nonpayable",
      "type": "function"
    },
    {
      "constant": false,
      "inputs": [
        {
          "internalType": "address",
          "name": "to",
          "type": "address"
        },
        {
          "internalType": "bool",
          "name": "approved",
          "type": "bool"
        }
      ],
      "name": "setApprovalForAll",
      "outputs": [],
      "payable": false,
      "stateMutability": "nonpayable",
      "type": "function"
    },
    {
      "constant": true,
      "inputs": [
        {
          "internalType": "bytes4",
          "name": "interfaceId",
          "type": "bytes4"
        }
      ],
      "name": "supportsInterface",
      "outputs": [
        {
          "internalType": "bool",
          "name": "",
          "type": "bool"
        }
      ],
      "payable": false,
      "stateMutability": "view",
      "type": "function"
    },
    {
      "constant": true,
      "inputs": [],
      "name": "symbol",
      "outputs": [
        {
          "internalType": "string",
          "name": "",
          "type": "string"
        }
      ],
      "payable": false,
      "stateMutability": "view",
      "type": "function"
    },
    {
      "constant": true,
      "inputs": [
        {
          "internalType": "uint256",
          "name": "index",
          "type": "uint256"
        }
      ],
      "name": "tokenByIndex",
      "outputs": [
        {
          "internalType": "uint256",
          "name": "",
          "type": "uint256"
        }
      ],
      "payable": false,
      "stateMutability": "view",
      "type": "function"
    },
    {
      "constant": true,
      "inputs": [
        {
          "internalType": "address",
          "name": "owner",
          "type": "address"
        },
        {
          "internalType": "uint256",
          "name": "index",
          "type": "uint256"
        }
      ],
      "name": "tokenOfOwnerByIndex",
      "outputs": [
        {
          "internalType": "uint256",
          "name": "",
          "type": "uint256"
        }
      ],
      "payable": false,
      "stateMutability": "view",
      "type": "function"
    },
    {
      "constant": true,
      "inputs": [
        {
          "internalType": "uint256",
          "name": "tokenId",
          "type": "uint256"
        }
      ],
      "name": "tokenURI",
      "outputs": [
        {
          "internalType": "string",
          "name": "",
          "type": "string"
        }
      ],
      "payable": false,
      "stateMutability": "view",
      "type": "function"
    },
    {
      "constant": true,
      "inputs": [],
      "name": "totalSupply",
      "outputs": [
        {
          "internalType": "uint256",
          "name": "",
          "type": "uint256"
        }
      ],
      "payable": false,
      "stateMutability": "view",
      "type": "function"
    },
    {
      "constant": true,
      "inputs": [
        {
          "internalType": "uint256",
          "name": "",
          "type": "uint256"
        }
      ],
      "name": "tours",
      "outputs": [
        {
          "internalType": "uint256",
          "name": "price",
          "type": "uint256"
        },
        {
          "internalType": "string",
          "name": "baseTourID",
          "type": "string"
        },
        {
          "internalType": "string",
          "name": "flightTicketId",
          "type": "string"
        },
        {
          "internalType": "string",
          "name": "hotelBookingId",
          "type": "string"
        },
        {
          "internalType": "string",
          "name": "usernameOwner",
          "type": "string"
        },
        {
          "internalType": "uint256",
          "name": "startDay",
          "type": "uint256"
        },
        {
          "internalType": "bool",
          "name": "isForSale",
          "type": "bool"
        }
      ],
      "payable": false,
      "stateMutability": "view",
      "type": "function"
    },
    {
      "constant": false,
      "inputs": [
        {
          "internalType": "address",
          "name": "from",
          "type": "address"
        },
        {
          "internalType": "address",
          "name": "to",
          "type": "address"
        },
        {
          "internalType": "uint256",
          "name": "tokenId",
          "type": "uint256"
        }
      ],
      "name": "transferFrom",
      "outputs": [],
      "payable": false,
      "stateMutability": "nonpayable",
      "type": "function"
    },
    {
      "constant": false,
      "inputs": [
        {
          "internalType": "uint256",
          "name": "price",
          "type": "uint256"
        },
        {
          "internalType": "string",
          "name": "baseTourID",
          "type": "string"
        },
        {
          "internalType": "string",
          "name": "flightTicketId",
          "type": "string"
        },
        {
          "internalType": "string",
          "name": "hotelBookingId",
          "type": "string"
        },
        {
          "internalType": "string",
          "name": "usernameOwner",
          "type": "string"
        },
        {
          "internalType": "uint256",
          "name": "startDay",
          "type": "uint256"
        }
      ],
      "name": "createTour",
      "outputs": [],
      "payable": false,
      "stateMutability": "nonpayable",
      "type": "function"
    },
    {
      "constant": false,
      "inputs": [
        {
          "internalType": "uint256",
          "name": "tokenId",
          "type": "uint256"
        }
      ],
      "name": "buyTour",
      "outputs": [],
      "payable": false,
      "stateMutability": "nonpayable",
      "type": "function"
    },
    {
      "constant": true,
      "inputs": [
        {
          "internalType": "uint256",
          "name": "tokenId",
          "type": "uint256"
        }
      ],
      "name": "getTour",
      "outputs": [
        {
          "components": [
            {
              "internalType": "uint256",
              "name": "price",
              "type": "uint256"
            },
            {
              "internalType": "string",
              "name": "baseTourID",
              "type": "string"
            },
            {
              "internalType": "string",
              "name": "flightTicketId",
              "type": "string"
            },
            {
              "internalType": "string",
              "name": "hotelBookingId",
              "type": "string"
            },
            {
              "internalType": "string",
              "name": "usernameOwner",
              "type": "string"
            },
            {
              "internalType": "uint256",
              "name": "startDay",
              "type": "uint256"
            },
            {
              "internalType": "bool",
              "name": "isForSale",
              "type": "bool"
            }
          ],
          "internalType": "struct TourNFT.Tour",
          "name": "",
          "type": "tuple"
        }
      ],
      "payable": false,
      "stateMutability": "view",
      "type": "function"
    },
    {
      "constant": false,
      "inputs": [
        {
          "internalType": "uint256",
          "name": "tokenId",
          "type": "uint256"
        },
        {
          "internalType": "bool",
          "name": "isForSale",
          "type": "bool"
        }
      ],
      "name": "setTourForSale",
      "outputs": [],
      "payable": false,
      "stateMutability": "nonpayable",
      "type": "function"
    },
    {
      "constant": false,
      "inputs": [
        {
          "internalType": "uint256",
          "name": "amount",
          "type": "uint256"
        }
      ],
      "name": "addBalance",
      "outputs": [],
      "payable": false,
      "stateMutability": "nonpayable",
      "type": "function"
    },
    {
      "constant": true,
      "inputs": [],
      "name": "getBalance",
      "outputs": [
        {
          "internalType": "uint256",
          "name": "",
          "type": "uint256"
        }
      ],
      "payable": false,
      "stateMutability": "view",
      "type": "function"
    }
  ],
  "bytecode": "0x60806040523480156200001157600080fd5b506040518060400160405280600781526020017f546f75724e4654000000000000000000000000000000000000000000000000008152506040518060400160405280600481526020017f544e4654000000000000000000000000000000000000000000000000000000008152508181620000986301ffc9a760e01b6200011c60201b60201c565b620000b06380ac58cd60e01b6200011c60201b60201c565b620000c863780e9d6360e01b6200011c60201b60201c565b8160099080519060200190620000e0929190620001f4565b5080600a9080519060200190620000f9929190620001f4565b5062000112635b5e139f60e01b6200011c60201b60201c565b5050505062000318565b63ffffffff60e01b817bffffffffffffffffffffffffffffffffffffffffffffffffffffffff1916141562000188576040517f08c379a00000000000000000000000000000000000000000000000000000000081526004016200017f90620002e5565b60405180910390fd5b6001600080837bffffffffffffffffffffffffffffffffffffffffffffffffffffffff19167bffffffffffffffffffffffffffffffffffffffffffffffffffffffff1916815260200190815260200160002060006101000a81548160ff02191690831515021790555050565b828054600181600116156101000203166002900490600052602060002090601f016020900481019282601f106200023757805160ff191683800117855562000268565b8280016001018555821562000268579182015b82811115620002675782518255916020019190600101906200024a565b5b5090506200027791906200027b565b5090565b620002a091905b808211156200029c57600081600090555060010162000282565b5090565b90565b6000620002b2601c8362000307565b91507f4552433136353a20696e76616c696420696e74657266616365206964000000006000830152602082019050919050565b600060208201905081810360008301526200030081620002a3565b9050919050565b600082825260208201905092915050565b6137c480620003286000396000f3fe608060405234801561001057600080fd5b50600436106101735760003560e01c806342842e0e116100de578063a22cb46511610097578063c87b56dd11610071578063c87b56dd14610474578063d91921ed146104a4578063de1c9674146104c0578063e985e9c5146104f057610173565b8063a22cb46514610420578063b88d4fde1461043c578063c3c077d41461045857610173565b806342842e0e146103385780634f6ccce7146103545780636352211e1461038457806370a08231146103b457806375794a3c146103e457806395d89b411461040257610173565b8063193edf7e11610130578063193edf7e1461024e57806323b872dd1461026a57806324ce2f671461028657806327a72cc6146102a257806327e235e3146102d85780632f745c591461030857610173565b806301ffc9a71461017857806306fdde03146101a8578063081812fc146101c6578063095ea7b3146101f657806312065fe01461021257806318160ddd14610230575b600080fd5b610192600480360361018d9190810190612746565b610520565b60405161019f91906131ea565b60405180910390f35b6101b0610587565b6040516101bd9190613205565b60405180910390f35b6101e060048036036101db9190810190612798565b610629565b6040516101ed9190613183565b60405180910390f35b610210600480360361020b919081019061270a565b6106ae565b005b61021a61085b565b60405161022791906134a9565b60405180910390f35b6102386108a2565b60405161024591906134a9565b60405180910390f35b610268600480360361026391908101906127fd565b6108af565b005b610284600480360361027f9190810190612604565b6109cf565b005b6102a0600480360361029b9190810190612798565b610a28565b005b6102bc60048036036102b79190810190612798565b610b0a565b6040516102cf97969594939291906134c4565b60405180910390f35b6102f260048036036102ed919081019061259f565b610db9565b6040516102ff91906134a9565b60405180910390f35b610322600480360361031d919081019061270a565b610dd1565b60405161032f91906134a9565b60405180910390f35b610352600480360361034d9190810190612604565b610e7a565b005b61036e60048036036103699190810190612798565b610e9a565b60405161037b91906134a9565b60405180910390f35b61039e60048036036103999190810190612798565b610f04565b6040516103ab9190613183565b60405180910390f35b6103ce60048036036103c9919081019061259f565b610fb6565b6040516103db91906134a9565b60405180910390f35b6103ec611075565b6040516103f991906134a9565b60405180910390f35b61040a61107b565b6040516104179190613205565b60405180910390f35b61043a600480360361043591908101906126ce565b61111d565b005b61045660048036036104519190810190612653565b611289565b005b610472600480360361046d91908101906127c1565b6112e5565b005b61048e60048036036104899190810190612798565b61138d565b60405161049b9190613205565b60405180910390f35b6104be60048036036104b99190810190612798565b61148a565b005b6104da60048036036104d59190810190612798565b6114da565b6040516104e79190613487565b60405180910390f35b61050a600480360361050591908101906125c8565b6117be565b60405161051791906131ea565b60405180910390f35b6000806000837bffffffffffffffffffffffffffffffffffffffffffffffffffffffff19167bffffffffffffffffffffffffffffffffffffffffffffffffffffffff1916815260200190815260200160002060009054906101000a900460ff169050919050565b606060098054600181600116156101000203166002900480601f01602080910402602001604051908101604052809291908181526020018280546001816001161561010002031660029004801561061f5780601f106105f45761010080835404028352916020019161061f565b820191906000526020600020905b81548152906001019060200180831161060257829003601f168201915b5050505050905090565b600061063482611852565b610673576040517f08c379a000000000000000000000000000000000000000000000000000000000815260040161066a90613387565b60405180910390fd5b6002600083815260200190815260200160002060009054906101000a900473ffffffffffffffffffffffffffffffffffffffff169050919050565b60006106b982610f04565b90508073ffffffffffffffffffffffffffffffffffffffff168373ffffffffffffffffffffffffffffffffffffffff16141561072a576040517f08c379a0000000000000000000000000000000000000000000000000000000008152600401610721906133e7565b60405180910390fd5b8073ffffffffffffffffffffffffffffffffffffffff163373ffffffffffffffffffffffffffffffffffffffff16148061076a575061076981336117be565b5b6107a9576040517f08c379a00000000000000000000000000000000000000000000000000000000081526004016107a090613307565b60405180910390fd5b826002600084815260200190815260200160002060006101000a81548173ffffffffffffffffffffffffffffffffffffffff021916908373ffffffffffffffffffffffffffffffffffffffff160217905550818373ffffffffffffffffffffffffffffffffffffffff168273ffffffffffffffffffffffffffffffffffffffff167f8c5be1e5ebec7d5bd14f71427d1e84f3dd0314c0f7b2291e5b200ac8c7c3b92560405160405180910390a4505050565b6000600e60003373ffffffffffffffffffffffffffffffffffffffff1673ffffffffffffffffffffffffffffffffffffffff16815260200190815260200160002054905090565b6000600780549050905090565b6000600c5490506040518060e0016040528088815260200187815260200186815260200185815260200184815260200183815260200160011515815250600d60008381526020019081526020016000206000820151816000015560208201518160010190805190602001906109259291906122fe565b5060408201518160020190805190602001906109429291906122fe565b50606082015181600301908051906020019061095f9291906122fe565b50608082015181600401908051906020019061097c9291906122fe565b5060a0820151816005015560c08201518160060160006101000a81548160ff0219169083151502179055509050506109b433826118c4565b600c6000815480929190600101919050555050505050505050565b6109d933826118e5565b610a18576040517f08c379a0000000000000000000000000000000000000000000000000000000008152600401610a0f90613427565b60405180910390fd5b610a238383836119c3565b505050565b600d600082815260200190815260200160002060060160009054906101000a900460ff16610a8b576040517f08c379a0000000000000000000000000000000000000000000000000000000008152600401610a8290613467565b60405180910390fd5b6000600d600083815260200190815260200160002060060160006101000a81548160ff02191690831515021790555060405180602001604052806000815250600d60008381526020019081526020016000206004019080519060200190610af392919061237e565b50610b07610b0082610f04565b3383610e7a565b50565b600d602052806000526040600020600091509050806000015490806001018054600181600116156101000203166002900480601f016020809104026020016040519081016040528092919081815260200182805460018160011615610100020316600290048015610bbc5780601f10610b9157610100808354040283529160200191610bbc565b820191906000526020600020905b815481529060010190602001808311610b9f57829003601f168201915b505050505090806002018054600181600116156101000203166002900480601f016020809104026020016040519081016040528092919081815260200182805460018160011615610100020316600290048015610c5a5780601f10610c2f57610100808354040283529160200191610c5a565b820191906000526020600020905b815481529060010190602001808311610c3d57829003601f168201915b505050505090806003018054600181600116156101000203166002900480601f016020809104026020016040519081016040528092919081815260200182805460018160011615610100020316600290048015610cf85780601f10610ccd57610100808354040283529160200191610cf8565b820191906000526020600020905b815481529060010190602001808311610cdb57829003601f168201915b505050505090806004018054600181600116156101000203166002900480601f016020809104026020016040519081016040528092919081815260200182805460018160011615610100020316600290048015610d965780601f10610d6b57610100808354040283529160200191610d96565b820191906000526020600020905b815481529060010190602001808311610d7957829003601f168201915b5050505050908060050154908060060160009054906101000a900460ff16905087565b600e6020528060005260406000206000915090505481565b6000610ddc83610fb6565b8210610e1d576040517f08c379a0000000000000000000000000000000000000000000000000000000008152600401610e1490613227565b60405180910390fd5b600560008473ffffffffffffffffffffffffffffffffffffffff1673ffffffffffffffffffffffffffffffffffffffff1681526020019081526020016000208281548110610e6757fe5b9060005260206000200154905092915050565b610e9583838360405180602001604052806000815250611289565b505050565b6000610ea46108a2565b8210610ee5576040517f08c379a0000000000000000000000000000000000000000000000000000000008152600401610edc90613447565b60405180910390fd5b60078281548110610ef257fe5b90600052602060002001549050919050565b6000806001600084815260200190815260200160002060009054906101000a900473ffffffffffffffffffffffffffffffffffffffff169050600073ffffffffffffffffffffffffffffffffffffffff168173ffffffffffffffffffffffffffffffffffffffff161415610fad576040517f08c379a0000000000000000000000000000000000000000000000000000000008152600401610fa490613347565b60405180910390fd5b80915050919050565b60008073ffffffffffffffffffffffffffffffffffffffff168273ffffffffffffffffffffffffffffffffffffffff161415611027576040517f08c379a000000000000000000000000000000000000000000000000000000000815260040161101e90613327565b60405180910390fd5b61106e600360008473ffffffffffffffffffffffffffffffffffffffff1673ffffffffffffffffffffffffffffffffffffffff1681526020019081526020016000206119e7565b9050919050565b600c5481565b6060600a8054600181600116156101000203166002900480601f0160208091040260200160405190810160405280929190818152602001828054600181600116156101000203166002900480156111135780601f106110e857610100808354040283529160200191611113565b820191906000526020600020905b8154815290600101906020018083116110f657829003601f168201915b5050505050905090565b3373ffffffffffffffffffffffffffffffffffffffff168273ffffffffffffffffffffffffffffffffffffffff16141561118c576040517f08c379a0000000000000000000000000000000000000000000000000000000008152600401611183906132a7565b60405180910390fd5b80600460003373ffffffffffffffffffffffffffffffffffffffff1673ffffffffffffffffffffffffffffffffffffffff16815260200190815260200160002060008473ffffffffffffffffffffffffffffffffffffffff1673ffffffffffffffffffffffffffffffffffffffff16815260200190815260200160002060006101000a81548160ff0219169083151502179055508173ffffffffffffffffffffffffffffffffffffffff163373ffffffffffffffffffffffffffffffffffffffff167f17307eab39ab6107e8899845ad3d59bd9653f200f220920489ca2b5937696c318360405161127d91906131ea565b60405180910390a35050565b6112948484846109cf565b6112a0848484846119f5565b6112df576040517f08c379a00000000000000000000000000000000000000000000000000000000081526004016112d690613247565b60405180910390fd5b50505050565b3373ffffffffffffffffffffffffffffffffffffffff1661130583610f04565b73ffffffffffffffffffffffffffffffffffffffff161461135b576040517f08c379a000000000000000000000000000000000000000000000000000000000815260040161135290613407565b60405180910390fd5b80600d600084815260200190815260200160002060060160006101000a81548160ff0219169083151502179055505050565b606061139882611852565b6113d7576040517f08c379a00000000000000000000000000000000000000000000000000000000081526004016113ce906133c7565b60405180910390fd5b600b60008381526020019081526020016000208054600181600116156101000203166002900480601f01602080910402602001604051908101604052809291908181526020018280546001816001161561010002031660029004801561147e5780601f106114535761010080835404028352916020019161147e565b820191906000526020600020905b81548152906001019060200180831161146157829003601f168201915b50505050509050919050565b80600e60003373ffffffffffffffffffffffffffffffffffffffff1673ffffffffffffffffffffffffffffffffffffffff1681526020019081526020016000206000828254019250508190555050565b6114e26123fe565b600d60008381526020019081526020016000206040518060e001604052908160008201548152602001600182018054600181600116156101000203166002900480601f0160208091040260200160405190810160405280929190818152602001828054600181600116156101000203166002900480156115a35780601f10611578576101008083540402835291602001916115a3565b820191906000526020600020905b81548152906001019060200180831161158657829003601f168201915b50505050508152602001600282018054600181600116156101000203166002900480601f0160208091040260200160405190810160405280929190818152602001828054600181600116156101000203166002900480156116455780601f1061161a57610100808354040283529160200191611645565b820191906000526020600020905b81548152906001019060200180831161162857829003601f168201915b50505050508152602001600382018054600181600116156101000203166002900480601f0160208091040260200160405190810160405280929190818152602001828054600181600116156101000203166002900480156116e75780601f106116bc576101008083540402835291602001916116e7565b820191906000526020600020905b8154815290600101906020018083116116ca57829003601f168201915b50505050508152602001600482018054600181600116156101000203166002900480601f0160208091040260200160405190810160405280929190818152602001828054600181600116156101000203166002900480156117895780601f1061175e57610100808354040283529160200191611789565b820191906000526020600020905b81548152906001019060200180831161176c57829003601f168201915b50505050508152602001600582015481526020016006820160009054906101000a900460ff1615151515815250509050919050565b6000600460008473ffffffffffffffffffffffffffffffffffffffff1673ffffffffffffffffffffffffffffffffffffffff16815260200190815260200160002060008373ffffffffffffffffffffffffffffffffffffffff1673ffffffffffffffffffffffffffffffffffffffff16815260200190815260200160002060009054906101000a900460ff16905092915050565b6000806001600084815260200190815260200160002060009054906101000a900473ffffffffffffffffffffffffffffffffffffffff169050600073ffffffffffffffffffffffffffffffffffffffff168173ffffffffffffffffffffffffffffffffffffffff161415915050919050565b6118ce8282611b0c565b6118d88282611cbe565b6118e181611d85565b5050565b60006118f082611852565b61192f576040517f08c379a0000000000000000000000000000000000000000000000000000000008152600401611926906132e7565b60405180910390fd5b600061193a83610f04565b90508073ffffffffffffffffffffffffffffffffffffffff168473ffffffffffffffffffffffffffffffffffffffff1614806119a957508373ffffffffffffffffffffffffffffffffffffffff1661199184610629565b73ffffffffffffffffffffffffffffffffffffffff16145b806119ba57506119b981856117be565b5b91505092915050565b6119ce838383611dd1565b6119d88382612000565b6119e28282611cbe565b505050565b600081600001549050919050565b6000611a168473ffffffffffffffffffffffffffffffffffffffff1661219e565b611a235760019050611b04565b60008473ffffffffffffffffffffffffffffffffffffffff1663150b7a02338887876040518563ffffffff1660e01b8152600401611a64949392919061319e565b602060405180830381600087803b158015611a7e57600080fd5b505af1158015611a92573d6000803e3d6000fd5b505050506040513d601f19601f82011682018060405250611ab6919081019061276f565b905063150b7a0260e01b7bffffffffffffffffffffffffffffffffffffffffffffffffffffffff1916817bffffffffffffffffffffffffffffffffffffffffffffffffffffffff1916149150505b949350505050565b600073ffffffffffffffffffffffffffffffffffffffff168273ffffffffffffffffffffffffffffffffffffffff161415611b7c576040517f08c379a0000000000000000000000000000000000000000000000000000000008152600401611b7390613367565b60405180910390fd5b611b8581611852565b15611bc5576040517f08c379a0000000000000000000000000000000000000000000000000000000008152600401611bbc90613267565b60405180910390fd5b816001600083815260200190815260200160002060006101000a81548173ffffffffffffffffffffffffffffffffffffffff021916908373ffffffffffffffffffffffffffffffffffffffff160217905550611c5e600360008473ffffffffffffffffffffffffffffffffffffffff1673ffffffffffffffffffffffffffffffffffffffff1681526020019081526020016000206121b1565b808273ffffffffffffffffffffffffffffffffffffffff16600073ffffffffffffffffffffffffffffffffffffffff167fddf252ad1be2c89b69c2b068fc378daa952ba7f163c4a11628f55a4df523b3ef60405160405180910390a45050565b600560008373ffffffffffffffffffffffffffffffffffffffff1673ffffffffffffffffffffffffffffffffffffffff168152602001908152602001600020805490506006600083815260200190815260200160002081905550600560008373ffffffffffffffffffffffffffffffffffffffff1673ffffffffffffffffffffffffffffffffffffffff1681526020019081526020016000208190806001815401808255809150509060018203906000526020600020016000909192909190915055505050565b6007805490506008600083815260200190815260200160002081905550600781908060018154018082558091505090600182039060005260206000200160009091929091909150555050565b8273ffffffffffffffffffffffffffffffffffffffff16611df182610f04565b73ffffffffffffffffffffffffffffffffffffffff1614611e47576040517f08c379a0000000000000000000000000000000000000000000000000000000008152600401611e3e906133a7565b60405180910390fd5b600073ffffffffffffffffffffffffffffffffffffffff168273ffffffffffffffffffffffffffffffffffffffff161415611eb7576040517f08c379a0000000000000000000000000000000000000000000000000000000008152600401611eae90613287565b60405180910390fd5b611ec0816121c7565b611f07600360008573ffffffffffffffffffffffffffffffffffffffff1673ffffffffffffffffffffffffffffffffffffffff168152602001908152602001600020612285565b611f4e600360008473ffffffffffffffffffffffffffffffffffffffff1673ffffffffffffffffffffffffffffffffffffffff1681526020019081526020016000206121b1565b816001600083815260200190815260200160002060006101000a81548173ffffffffffffffffffffffffffffffffffffffff021916908373ffffffffffffffffffffffffffffffffffffffff160217905550808273ffffffffffffffffffffffffffffffffffffffff168473ffffffffffffffffffffffffffffffffffffffff167fddf252ad1be2c89b69c2b068fc378daa952ba7f163c4a11628f55a4df523b3ef60405160405180910390a4505050565b60006120586001600560008673ffffffffffffffffffffffffffffffffffffffff1673ffffffffffffffffffffffffffffffffffffffff168152602001908152602001600020805490506122a890919063ffffffff16565b9050600060066000848152602001908152602001600020549050818114612145576000600560008673ffffffffffffffffffffffffffffffffffffffff1673ffffffffffffffffffffffffffffffffffffffff16815260200190815260200160002083815481106120c557fe5b9060005260206000200154905080600560008773ffffffffffffffffffffffffffffffffffffffff1673ffffffffffffffffffffffffffffffffffffffff168152602001908152602001600020838154811061211d57fe5b9060005260206000200181905550816006600083815260200190815260200160002081905550505b600560008573ffffffffffffffffffffffffffffffffffffffff1673ffffffffffffffffffffffffffffffffffffffff168152602001908152602001600020805480919060019003612197919061243d565b5050505050565b600080823b905060008111915050919050565b6001816000016000828254019250508190555050565b600073ffffffffffffffffffffffffffffffffffffffff166002600083815260200190815260200160002060009054906101000a900473ffffffffffffffffffffffffffffffffffffffff1673ffffffffffffffffffffffffffffffffffffffff16146122825760006002600083815260200190815260200160002060006101000a81548173ffffffffffffffffffffffffffffffffffffffff021916908373ffffffffffffffffffffffffffffffffffffffff1602179055505b50565b61229d600182600001546122a890919063ffffffff16565b816000018190555050565b6000828211156122ed576040517f08c379a00000000000000000000000000000000000000000000000000000000081526004016122e4906132c7565b60405180910390fd5b600082840390508091505092915050565b828054600181600116156101000203166002900490600052602060002090601f016020900481019282601f1061233f57805160ff191683800117855561236d565b8280016001018555821561236d579182015b8281111561236c578251825591602001919060010190612351565b5b50905061237a9190612469565b5090565b828054600181600116156101000203166002900490600052602060002090601f016020900481019282601f106123bf57805160ff19168380011785556123ed565b828001600101855582156123ed579182015b828111156123ec5782518255916020019190600101906123d1565b5b5090506123fa9190612469565b5090565b6040518060e001604052806000815260200160608152602001606081526020016060815260200160608152602001600081526020016000151581525090565b815481835581811115612464578183600052602060002091820191016124639190612469565b5b505050565b61248b91905b8082111561248757600081600090555060010161246f565b5090565b90565b60008135905061249d81613725565b92915050565b6000813590506124b28161373c565b92915050565b6000813590506124c781613753565b92915050565b6000815190506124dc81613753565b92915050565b600082601f8301126124f357600080fd5b81356125066125018261357c565b61354f565b9150808252602083016020830185838301111561252257600080fd5b61252d8382846136d2565b50505092915050565b600082601f83011261254757600080fd5b813561255a612555826135a8565b61354f565b9150808252602083016020830185838301111561257657600080fd5b6125818382846136d2565b50505092915050565b6000813590506125998161376a565b92915050565b6000602082840312156125b157600080fd5b60006125bf8482850161248e565b91505092915050565b600080604083850312156125db57600080fd5b60006125e98582860161248e565b92505060206125fa8582860161248e565b9150509250929050565b60008060006060848603121561261957600080fd5b60006126278682870161248e565b93505060206126388682870161248e565b92505060406126498682870161258a565b9150509250925092565b6000806000806080858703121561266957600080fd5b60006126778782880161248e565b94505060206126888782880161248e565b93505060406126998782880161258a565b925050606085013567ffffffffffffffff8111156126b657600080fd5b6126c2878288016124e2565b91505092959194509250565b600080604083850312156126e157600080fd5b60006126ef8582860161248e565b9250506020612700858286016124a3565b9150509250929050565b6000806040838503121561271d57600080fd5b600061272b8582860161248e565b925050602061273c8582860161258a565b9150509250929050565b60006020828403121561275857600080fd5b6000612766848285016124b8565b91505092915050565b60006020828403121561278157600080fd5b600061278f848285016124cd565b91505092915050565b6000602082840312156127aa57600080fd5b60006127b88482850161258a565b91505092915050565b600080604083850312156127d457600080fd5b60006127e28582860161258a565b92505060206127f3858286016124a3565b9150509250929050565b60008060008060008060c0878903121561281657600080fd5b600061282489828a0161258a565b965050602087013567ffffffffffffffff81111561284157600080fd5b61284d89828a01612536565b955050604087013567ffffffffffffffff81111561286a57600080fd5b61287689828a01612536565b945050606087013567ffffffffffffffff81111561289357600080fd5b61289f89828a01612536565b935050608087013567ffffffffffffffff8111156128bc57600080fd5b6128c889828a01612536565b92505060a06128d989828a0161258a565b9150509295509295509295565b6128ef8161369c565b82525050565b6128fe81613628565b82525050565b61290d8161363a565b82525050565b61291c8161363a565b82525050565b600061292d826135d4565b61293781856135f5565b93506129478185602086016136e1565b61295081613714565b840191505092915050565b6000612966826135ea565b6129708185613617565b93506129808185602086016136e1565b61298981613714565b840191505092915050565b600061299f826135df565b6129a98185613606565b93506129b98185602086016136e1565b6129c281613714565b840191505092915050565b60006129d8826135df565b6129e28185613617565b93506129f28185602086016136e1565b6129fb81613714565b840191505092915050565b6000612a13602b83613617565b91507f455243373231456e756d657261626c653a206f776e657220696e646578206f7560008301527f74206f6620626f756e64730000000000000000000000000000000000000000006020830152604082019050919050565b6000612a79603283613617565b91507f4552433732313a207472616e7366657220746f206e6f6e20455243373231526560008301527f63656976657220696d706c656d656e74657200000000000000000000000000006020830152604082019050919050565b6000612adf601c83613617565b91507f4552433732313a20746f6b656e20616c7265616479206d696e746564000000006000830152602082019050919050565b6000612b1f602483613617565b91507f4552433732313a207472616e7366657220746f20746865207a65726f2061646460008301527f72657373000000000000000000000000000000000000000000000000000000006020830152604082019050919050565b6000612b85601983613617565b91507f4552433732313a20617070726f766520746f2063616c6c6572000000000000006000830152602082019050919050565b6000612bc5601e83613617565b91507f536166654d6174683a207375627472616374696f6e206f766572666c6f7700006000830152602082019050919050565b6000612c05602c83613617565b91507f4552433732313a206f70657261746f7220717565727920666f72206e6f6e657860008301527f697374656e7420746f6b656e00000000000000000000000000000000000000006020830152604082019050919050565b6000612c6b603883613617565b91507f4552433732313a20617070726f76652063616c6c6572206973206e6f74206f7760008301527f6e6572206e6f7220617070726f76656420666f7220616c6c00000000000000006020830152604082019050919050565b6000612cd1602a83613617565b91507f4552433732313a2062616c616e636520717565727920666f7220746865207a6560008301527f726f2061646472657373000000000000000000000000000000000000000000006020830152604082019050919050565b6000612d37602983613617565b91507f4552433732313a206f776e657220717565727920666f72206e6f6e657869737460008301527f656e7420746f6b656e00000000000000000000000000000000000000000000006020830152604082019050919050565b6000612d9d602083613617565b91507f4552433732313a206d696e7420746f20746865207a65726f20616464726573736000830152602082019050919050565b6000612ddd602c83613617565b91507f4552433732313a20617070726f76656420717565727920666f72206e6f6e657860008301527f697374656e7420746f6b656e00000000000000000000000000000000000000006020830152604082019050919050565b6000612e43602983613617565b91507f4552433732313a207472616e73666572206f6620746f6b656e2074686174206960008301527f73206e6f74206f776e00000000000000000000000000000000000000000000006020830152604082019050919050565b6000612ea9602f83613617565b91507f4552433732314d657461646174613a2055524920717565727920666f72206e6f60008301527f6e6578697374656e7420746f6b656e00000000000000000000000000000000006020830152604082019050919050565b6000612f0f602183613617565b91507f4552433732313a20617070726f76616c20746f2063757272656e74206f776e6560008301527f72000000000000000000000000000000000000000000000000000000000000006020830152604082019050919050565b6000612f75601f83613617565b91507f4f6e6c7920746865206f776e65722063616e2073657420666f722073616c65006000830152602082019050919050565b6000612fb5603183613617565b91507f4552433732313a207472616e736665722063616c6c6572206973206e6f74206f60008301527f776e6572206e6f7220617070726f7665640000000000000000000000000000006020830152604082019050919050565b600061301b602c83613617565b91507f455243373231456e756d657261626c653a20676c6f62616c20696e646578206f60008301527f7574206f6620626f756e647300000000000000000000000000000000000000006020830152604082019050919050565b6000613081601483613617565b91507f546f7572206973206e6f7420666f722073616c650000000000000000000000006000830152602082019050919050565b600060e0830160008301516130cc6000860182613165565b50602083015184820360208601526130e48282612994565b915050604083015184820360408601526130fe8282612994565b915050606083015184820360608601526131188282612994565b915050608083015184820360808601526131328282612994565b91505060a083015161314760a0860182613165565b5060c083015161315a60c0860182612904565b508091505092915050565b61316e81613692565b82525050565b61317d81613692565b82525050565b600060208201905061319860008301846128f5565b92915050565b60006080820190506131b360008301876128e6565b6131c060208301866128f5565b6131cd6040830185613174565b81810360608301526131df8184612922565b905095945050505050565b60006020820190506131ff6000830184612913565b92915050565b6000602082019050818103600083015261321f818461295b565b905092915050565b6000602082019050818103600083015261324081612a06565b9050919050565b6000602082019050818103600083015261326081612a6c565b9050919050565b6000602082019050818103600083015261328081612ad2565b9050919050565b600060208201905081810360008301526132a081612b12565b9050919050565b600060208201905081810360008301526132c081612b78565b9050919050565b600060208201905081810360008301526132e081612bb8565b9050919050565b6000602082019050818103600083015261330081612bf8565b9050919050565b6000602082019050818103600083015261332081612c5e565b9050919050565b6000602082019050818103600083015261334081612cc4565b9050919050565b6000602082019050818103600083015261336081612d2a565b9050919050565b6000602082019050818103600083015261338081612d90565b9050919050565b600060208201905081810360008301526133a081612dd0565b9050919050565b600060208201905081810360008301526133c081612e36565b9050919050565b600060208201905081810360008301526133e081612e9c565b9050919050565b6000602082019050818103600083015261340081612f02565b9050919050565b6000602082019050818103600083015261342081612f68565b9050919050565b6000602082019050818103600083015261344081612fa8565b9050919050565b600060208201905081810360008301526134608161300e565b9050919050565b6000602082019050818103600083015261348081613074565b9050919050565b600060208201905081810360008301526134a181846130b4565b905092915050565b60006020820190506134be6000830184613174565b92915050565b600060e0820190506134d9600083018a613174565b81810360208301526134eb81896129cd565b905081810360408301526134ff81886129cd565b9050818103606083015261351381876129cd565b9050818103608083015261352781866129cd565b905061353660a0830185613174565b61354360c0830184612913565b98975050505050505050565b6000604051905081810181811067ffffffffffffffff8211171561357257600080fd5b8060405250919050565b600067ffffffffffffffff82111561359357600080fd5b601f19601f8301169050602081019050919050565b600067ffffffffffffffff8211156135bf57600080fd5b601f19601f8301169050602081019050919050565b600081519050919050565b600081519050919050565b600081519050919050565b600082825260208201905092915050565b600082825260208201905092915050565b600082825260208201905092915050565b600061363382613672565b9050919050565b60008115159050919050565b60007fffffffff0000000000000000000000000000000000000000000000000000000082169050919050565b600073ffffffffffffffffffffffffffffffffffffffff82169050919050565b6000819050919050565b60006136a7826136ae565b9050919050565b60006136b9826136c0565b9050919050565b60006136cb82613672565b9050919050565b82818337600083830152505050565b60005b838110156136ff5780820151818401526020810190506136e4565b8381111561370e576000848401525b50505050565b6000601f19601f8301169050919050565b61372e81613628565b811461373957600080fd5b50565b6137458161363a565b811461375057600080fd5b50565b61375c81613646565b811461376757600080fd5b50565b61377381613692565b811461377e57600080fd5b5056fea365627a7a7231582029c7672a26b90fd6651eab9d4c3d0f30cb0d2c2a5a9644930c74ca45eb2fbe606c6578706572696d656e74616cf564736f6c63430005100040",
  "source": "pragma solidity 0.5.16;\r\npragma experimental ABIEncoderV2;\r\n\r\nimport \"./ERC721Full.sol\";\r\n\r\ncontract TourNFT is ERC721Full {\r\n    uint256 public nextTokenId;\r\n\r\n    struct Tour {\r\n        uint256 price;\r\n        string baseTourID;\r\n        string flightTicketId;\r\n        string hotelBookingId;\r\n        string usernameOwner;\r\n        uint256 startDay;\r\n        bool isForSale;\r\n    }\r\n\r\n    mapping(uint256 => Tour) public tours;\r\n    mapping(address => uint256) public balances; // Track user balances\r\n\r\n    constructor() ERC721Full(\"TourNFT\", \"TNFT\") public {\r\n    }\r\n\r\n    // Function to create a new tour NFT\r\n    function createTour(\r\n        uint256 price,\r\n        string memory baseTourID,\r\n        string memory flightTicketId,\r\n        string memory hotelBookingId,\r\n        string memory usernameOwner,\r\n        uint256 startDay\r\n    ) public {\r\n        uint256 tokenId = nextTokenId;\r\n        tours[tokenId] = Tour(price, baseTourID, flightTicketId, hotelBookingId, usernameOwner, startDay, true);\r\n        _mint(msg.sender, tokenId);\r\n        nextTokenId++;\r\n    }\r\n\r\n    // Function to buy a tour\r\n    function buyTour(uint256 tokenId) public {\r\n        require(tours[tokenId].isForSale, \"Tour is not for sale\");\r\n        tours[tokenId].isForSale = false;\r\n        tours[tokenId].usernameOwner = \"\";\r\n        safeTransferFrom(ownerOf(tokenId), msg.sender, tokenId);\r\n    }\r\n\r\n    // Function to get tour details\r\n    function getTour(uint256 tokenId) public view returns (Tour memory) {\r\n        return tours[tokenId];\r\n    }\r\n\r\n    // Function to set tour for sale\r\n    function setTourForSale(uint256 tokenId, bool isForSale) public {\r\n        require(ownerOf(tokenId) == msg.sender, \"Only the owner can set for sale\");\r\n        tours[tokenId].isForSale = isForSale;\r\n    }\r\n\r\n    // Function to manually add balance to the user's account\r\n    function addBalance(uint256 amount) public {\r\n        balances[msg.sender] += amount;\r\n    }\r\n\r\n    // Function to get the balance of the user\r\n    function getBalance() public view returns (uint256) {\r\n        return balances[msg.sender];\r\n    }\r\n}\r\n",
  "sourcePath": "F:\\GitHub\\asm2-git\\contracts\\TourNFT.sol",
  "compiler": {
    "name": "solc",
    "version": "0.5.16+commit.9c3226ce.Emscripten.clang"
  },
  "schemaVersion": "3.4.16",
  "updatedAt": "2024-08-10T04:45:11.481Z",
  "networkType": "ethereum",
  "devdoc": {
    "methods": {
      "approve(address,uint256)": {
        "details": "Approves another address to transfer the given token ID The zero address indicates there is no approved address. There can only be one approved address per token at a given time. Can only be called by the token owner or an approved operator.",
        "params": {
          "to": "address to be approved for the given token ID",
          "tokenId": "uint256 ID of the token to be approved"
        }
      },
      "balanceOf(address)": {
        "details": "Gets the balance of the specified address.",
        "params": {
          "owner": "address to query the balance of"
        },
        "return": "uint256 representing the amount owned by the passed address"
      },
      "getApproved(uint256)": {
        "details": "Gets the approved address for a token ID, or zero if no address set Reverts if the token ID does not exist.",
        "params": {
          "tokenId": "uint256 ID of the token to query the approval of"
        },
        "return": "address currently approved for the given token ID"
      },
      "isApprovedForAll(address,address)": {
        "details": "Tells whether an operator is approved by a given owner.",
        "params": {
          "operator": "operator address which you want to query the approval of",
          "owner": "owner address which you want to query the approval of"
        },
        "return": "bool whether the given operator is approved by the given owner"
      },
      "name()": {
        "details": "Gets the token name.",
        "return": "string representing the token name"
      },
      "ownerOf(uint256)": {
        "details": "Gets the owner of the specified token ID.",
        "params": {
          "tokenId": "uint256 ID of the token to query the owner of"
        },
        "return": "address currently marked as the owner of the given token ID"
      },
      "safeTransferFrom(address,address,uint256)": {
        "details": "Safely transfers the ownership of a given token ID to another address If the target address is a contract, it must implement `onERC721Received`, which is called upon a safe transfer, and return the magic value `bytes4(keccak256(\"onERC721Received(address,address,uint256,bytes)\"))`; otherwise, the transfer is reverted. Requires the msg.sender to be the owner, approved, or operator",
        "params": {
          "from": "current owner of the token",
          "to": "address to receive the ownership of the given token ID",
          "tokenId": "uint256 ID of the token to be transferred"
        }
      },
      "safeTransferFrom(address,address,uint256,bytes)": {
        "details": "Safely transfers the ownership of a given token ID to another address If the target address is a contract, it must implement `onERC721Received`, which is called upon a safe transfer, and return the magic value `bytes4(keccak256(\"onERC721Received(address,address,uint256,bytes)\"))`; otherwise, the transfer is reverted. Requires the msg.sender to be the owner, approved, or operator",
        "params": {
          "_data": "bytes data to send along with a safe transfer check",
          "from": "current owner of the token",
          "to": "address to receive the ownership of the given token ID",
          "tokenId": "uint256 ID of the token to be transferred"
        }
      },
      "setApprovalForAll(address,bool)": {
        "details": "Sets or unsets the approval of a given operator An operator is allowed to transfer all tokens of the sender on their behalf.",
        "params": {
          "approved": "representing the status of the approval to be set",
          "to": "operator address to set the approval"
        }
      },
      "supportsInterface(bytes4)": {
        "details": "See `IERC165.supportsInterface`.     * Time complexity O(1), guaranteed to always use less than 30 000 gas."
      },
      "symbol()": {
        "details": "Gets the token symbol.",
        "return": "string representing the token symbol"
      },
      "tokenByIndex(uint256)": {
        "details": "Gets the token ID at a given index of all the tokens in this contract Reverts if the index is greater or equal to the total number of tokens.",
        "params": {
          "index": "uint256 representing the index to be accessed of the tokens list"
        },
        "return": "uint256 token ID at the given index of the tokens list"
      },
      "tokenOfOwnerByIndex(address,uint256)": {
        "details": "Gets the token ID at a given index of the tokens list of the requested owner.",
        "params": {
          "index": "uint256 representing the index to be accessed of the requested tokens list",
          "owner": "address owning the tokens list to be accessed"
        },
        "return": "uint256 token ID at the given index of the tokens list owned by the requested address"
      },
      "tokenURI(uint256)": {
        "details": "Returns an URI for a given token ID. Throws if the token ID does not exist. May return an empty string.",
        "params": {
          "tokenId": "uint256 ID of the token to query"
        }
      },
      "totalSupply()": {
        "details": "Gets the total amount of tokens stored by the contract.",
        "return": "uint256 representing the total amount of tokens"
      },
      "transferFrom(address,address,uint256)": {
        "details": "Transfers the ownership of a given token ID to another address. Usage of this method is discouraged, use `safeTransferFrom` whenever possible. Requires the msg.sender to be the owner, approved, or operator.",
        "params": {
          "from": "current owner of the token",
          "to": "address to receive the ownership of the given token ID",
          "tokenId": "uint256 ID of the token to be transferred"
        }
      }
    }
  },
  "userdoc": {
    "methods": {}
  }
}